:020000040800F2
:100000005005002001010008D71800080F1700084C
:10001000D518000835020008791C0008000000000F
:10002000000000000000000000000000C91B0008E4
:100030003702000800000000D9180008CB1B000898
:100040001B0100081B0100081B0100081B01000820
:100050001B0100081B0100081B0100081B01000810
:100060001B0100081B0100081B0100081B01000800
:100070001B0100081B0100081B0100081B010008F0
:100080001B0100081B0100086D0100081B0100088E
:100090001B0100081B0100081B0100081B010008D0
:1000A0001B0100081B0100081B0100081B010008C0
:1000B0001B0100081B0100081B0100081B010008B0
:1000C0001B0100081B0100081B0100081B010008A0
:1000D0001B0100081B0100081B0100081B01000890
:1000E0001B0100081B0100081B010008DFF80CD0F1
:1000F00000F02AF800480047251D000850050020A0
:100100000648804706480047FEE7FEE7FEE7FEE7B1
:10011000FEE7FEE7FEE7FEE7FEE7FEE7311C00082C
:10012000ED000008D2B201E000F8012B491EFBD21D
:1001300070470022F6E710B513460A4604461946F2
:10014000FFF7F0FF204610BD064C074D06E0E068C3
:1001500040F0010394E8070098471034AC42F6D30E
:10016000FFF7C8FFA01D0008C01D0008014800F0EF
:100170004DB900001C00002070B50446006881687D
:10018000C943C9071CD1816821F00101816000F0D9
:100190007BFC05460FE000BF00F076FC401B022808
:1001A00009D9A06A40F01000A062E06A40F00100A6
:1001B000E062012070BD20688068C043C007EBD0BA
:1001C000002070BDF8B500260446009600688168DE
:1001D000C943C90728D0816841F0010181601348F3
:1001E00013490068B0FBF1F000E0401E00900028C9
:1001F000FBD100F049FC054611E000BF00F044FCD3
:10020000401B02280BD9A06A40F01000A062E06AEF
:1002100040F00100E06284F824600120F8BD20680D
:100220008068C043C007E9D10020F8BD0C00002061
:1002300040420F00FEE7704770470000F8B5002508
:100240000446009590F82400012808D0012084F885
:1002500024002046FFF790FF060002D04BE002206A
:10026000F8BDA06A20F4885040F00200A06202208D
:1002700000F092FD22490968B1FBF0F0400000E077
:10028000401E00900028FBD12046FFF79BFF20680E
:10029000816841F00801816000F0F6FB074604E048
:1002A00000F0F2FBC01B0A2811D820688068000704
:1002B000F6D42068816841F00401816000F0E4FB1D
:1002C00007460EE000F0E0FBC01B0A2809D9A06A2F
:1002D00020F0020040F01000A06284F824500120B9
:1002E000F8BD206880684007ECD4A06A20F00200C6
:1002F00040F00100A06284F824503046F8BD0000B0
:100300000C00002070470000F8B50024009490F81D
:1003100024202546012A12D0012280F824204A6890
:100320001F23072A0DD20668776B521E02EB82024A
:1003300093409F430B6893401F43776319E002206B
:10034000F8BD06680D2A0AD2376BD21F02EB820273
:1003500093409F430B6893401F43376309E0F76A5C
:100360000D3A02EB820293409F430B6893401F4378
:10037000F7620A68072306680A2A0AD3F7680A3A66
:1003800002EB420293409F438B6893401F43F76008
:1003900008E0376902EB420293409F438B68934029
:1003A0001F4337610A68102A01D0112A20D1124B4D
:1003B00002689A4217D193681B0219D4936843F4D8
:1003C000000393600968102912D10C490C4A09688E
:1003D000B1FBF2F101EB8101490000E0491E0091FF
:1003E0000029FBD104E0816A41F0200181620124EF
:1003F00080F824502046F8BD002401400C00002065
:1004000040420F0070470068C06C704710B504464A
:1004100000684168890626D50168890723D5A16A45
:10042000C90603D4A16A41F40071A1628168C1F3D5
:100430004241072910D1217B71B9416821F0200187
:100440004160A06A20F48070A062A06AC00403D456
:10045000A06A40F00100A0622046FFF7D3FF2168A8
:100460006FF0120008602068416809062ED5016807
:1004700049072BD5A16AC90603D4A16A41F40051EA
:10048000A1628168C1F30231072909D04168490599
:1004900015D48168C1F34241072910D1217B71B97C
:1004A000416821F080014160A06A20F48050A06280
:1004B000A06AC00503D4A06A40F00100A0622046F3
:1004C000FFF720FF21686FF00C000860206841688A
:1004D00049060DD50068C0070AD0A06A40F48030F4
:1004E000A062204600F094F821686FF001000860D7
:1004F00010BD00002DE9F0414FF0000704003D461B
:100500007ED0A06A002628B9E66284F824602046DE
:1005100000F080F82046FFF72FFEA16AC90600D43C
:1005200020B1A06A40F01000A06269E0A16A21F445
:10053000885141F00201A1626268E169237B0A43AC
:1005400047EA43010A43A1684FF48077B94209D0D2
:10055000012907D05FF0000194F814C0BCF1010F2D
:1005600002D00AE03946F7E7F3B1A36A43F020036B
:10057000A362E36A43F00103E3622368D3F804C093
:100580002CF4694C4CEA010CC3F804C021688B6858
:10059000DFF870C003EA0C0313438B60A168B94213
:1005A0000BD0012909D00CE0DFF85CC0A3690CEB8B
:1005B00043330B4343F40061DFE7218A0D05A5F5C2
:1005C00080152168CB6A23F470032B43CB6221682A
:1005D00089680E4B1940914208D1E662A16A21F068
:1005E000020141F00101A162BDE8F081A06A20F0A2
:1005F000020040F01000A062E06A40F00100E062FA
:100600000120F1E7FDF7E1FF00E0FFFFFE0E1FFF15
:100610007047000000B585B0002100910191029162
:10062000039100681249884220D11248816941F43F
:1006300000718161816901F400710491816941F067
:10064000080181618069694600F008000490022079
:10065000009003200190084800F020F90022114684
:10066000122000F067FB122000F056FB05B000BD21
:100670000024014000100240000C01402DE9F84325
:1006800000260D460446009600F0FEF980462068DC
:100690008168C90508D5A06A40F02000A06284F8EE
:1006A00024600120BDE8F8834168C90503D4C06A0D
:1006B00010F4700F26D0022000F06EFB3849096854
:1006C000B1FBF0F72068036936490B424FEA61013C
:1006D0004FEAA1121BD1C3684FEA611C13EA0C0F49
:1006E00015D103690B4221D1C06810421ED11420DC
:1006F0001FE0681C06D045B300F0C6F9A0EB080067
:10070000A84222D8206800688007F2D52AE0036951
:100710000B4202D1C168114206D0026922490A4245
:1007200006D1C068084203D1542002E0292000E02D
:10073000FC204743009813E0681C0ED02DB100F058
:10074000A3F9A0EB0800A84207D9A06A40F0040072
:10075000A06284F824600320A4E70098401C009065
:10076000B842E9D321686FF012000860A06A40F433
:100770000070A06220688068C0F3424007280CD156
:10078000207B50B9A06A20F48070A062A06AC004E7
:1007900003D4A06A40F00100A062002082E70000BC
:1007A0000C000020244992244992240070B504468C
:1007B00090F8240001280DD0012084F82400204660
:1007C000FFF700FD02004FF0000005D084F8240080
:1007D000104670BD022070BDA16A40F601639943C6
:1007E00041F48071A162224D23682249AB4218D1A5
:1007F0000E6816F4702F14D0A66A46F48016A6620E
:100800000E68760505D5A66A26F4005646F480568D
:10081000A662A66AF6040AD5E66A26F00606E6622D
:1008200006E0A66A26F48016A6625E68E9E7E06242
:1008300084F824006FF0020018602068436843F0D9
:100840002003436020688368C3F34243072B05D12C
:10085000A84208D1096811F4702F04D0816841F4CE
:1008600080118160B4E7816841F4A001F9E70000DC
:10087000002801400424014070B5044600F004F94A
:100880000546601C02D004480078044400F0FCF8DF
:10089000401BA042FAD370BD000000202DE9F84FA4
:1008A000DFF8B891002409F1040A0AF1040B234689
:1008B0000F270BF1040EC9E00125A5402A40AA42EA
:1008C0007DD1674ED1F804C0ACEB0608B44532D0F8
:1008D00014DCBCF1030F3AD009DCBCF1000F2AD0C4
:1008E000BCF1010F1CD0BCF1020F31D11DE0BCF1F5
:1008F000110F17D0BCF1120F2AD119E0B8F5881FDB
:1009000019D006DCB8F5803F15D0B8F5801F1FD18F
:1009100011E0B8F5001F0ED0B8F5041F18D10AE099
:10092000CB6815E0CB681B1D12E0CB6808330FE0E5
:10093000CB680C330CE08B682BB1012B4FF0080314
:1009400003D0456104E0042302E0056100E00023D8
:10095000FF2A01D8064601E000F104064FEA8405AB
:1009600001D9A5F12005D6F8008007FA05FC28EA90
:100970000C0803FA05F548EA0508C6F800804D683A
:10098000ED0062D5374DAE6946F00106AE61AD6946
:1009900024F0030605F001050095334D06EB050C28
:1009A000DCF80850A607360F07FA06F825EA08050E
:1009B000DFF8B880404503D14FF0000817E044E06D
:1009C000DFF8AC80404502D14FF001080FE0DFF8BE
:1009D000A480404502D14FF0020808E0DFF898807B
:1009E000404502D14FF0030801E04FF0040808FA37
:1009F00006F848EA0508CCF808804D68D9F8006088
:100A0000ED034D4601D5164300E096432E604D6838
:100A1000DAF80060AD03554601D5164300E0964371
:100A20002E604D68DBF80060ED025D4601D516438F
:100A300000E096432E604D68DEF80060AD0275461A
:100A400001D5164300E096432E60641C0D682A46CB
:100A5000E5407FF431AFBDE8F88F000000040140AD
:100A60000000111000100240000001400008014089
:100A7000000C014000100140001401400AB1016166
:100A800070470904FBE700000148806870470000D8
:100A90000000002070B504001BD094F83D00002534
:100AA00020B984F83C50204600F0AEF8242084F8A9
:100AB0003D002068016821F00101016000F0DCFACE
:100AC0004D4A6168914201D84C4900E04C49884246
:100AD00001D2012070BD4B492368B0FBF1F15E6883
:100AE00026F03F060E435E606368934206D94FF4DA
:100AF000967359434FF47A73B1FBF3F12368491CA1
:100B00001E6A26F03F06314319626168914210D88F
:100B10004900401EB0FBF1F2521CC2F30B02042A42
:100B200001D2042022E0B0FBF1F0401CC0F30B0026
:100B30001CE0A368F3B301EBC10202EB0116421EF5
:100B4000B2FBF6F2521C42F48042120549D093B334
:100B500001EBC10202EB0111401EB0FBF1F0401CA1
:100B6000C0F30B0040F4804040F400402168CA69A3
:100B70004CF6FF739A431043C861D4E90701084358
:100B800021680A6822F0C00210430860D4E903011A
:100B900001432068826848F2FF339A431143816021
:100BA000D4E9050108432168CA6822F0FF02104316
:100BB000C86001E00EE016E02068016841F0010124
:100BC00001602564202084F83D00256384F83E50B0
:100BD000002070BD01EB4106421EB2FBF6F2521C32
:100BE000B3E70120C2E701EB4101401EB0FBF1F089
:100BF000401CC0F30B00B7E7A086010080841E00F4
:100C000000093D0040420F0010B586B00021009160
:100C10000191029103910068104988421BD1104C48
:100C2000A06940F00800A061A069694600F00800D2
:100C300004904FF440600090122001900320039034
:100C40000848FFF72BFEE06940F48000E061E069AE
:100C500000F48000049006B010BD00000058004071
:100C600000100240000C01400248816802781144E3
:100C70008160704700000020074810B5016841F00E
:100C800010010160032000F075F8002000F006F864
:100C900000F024F8002010BD0020024070B50D4D7A
:100CA00004464FF47A712878B1FBF0F00A490968DC
:100CB000B1FBF0F000F017FD48B9102C07D200226C
:100CC0002146501E00F036F800206C6070BD0120F7
:100CD00070BD0000000000200C0000200C4808B58A
:100CE000816941F001018161816901F00101009197
:100CF000C16941F08051C161C06900F0805000902D
:100D00000448416821F0E06141F00071416008BD94
:100D10000010024000000140002809DB00F01F0223
:100D2000012191404009800000F1E020C0F800114D
:100D300070470000F0B40E4B1B680C46C3F302234F
:100D4000C3F10705042D00D90425191D072901D277
:100D5000002300E0DB1E012606FA05F1491E2140B2
:100D600099409E40761E16403143F0BC00F085BF8E
:100D70000CED00E0064900F0070208684FF6FF039B
:100D8000184040EA0220034A104308607047000000
:100D90000CED00E00000FA0510B529A401461DCCB9
:100DA00086B08DE81D002AA02A4C0068049000201F
:100DB000012923D002293AD010291DD16168226867
:100DC000D20119D5C1F38342C9031DF8020009D528
:100DD000616804AAC1F34041515C1F4AB2FBF1F1C2
:100DE000484301E01D4948436168490204D440007A
:100DF0005FF00301B0FBF1F006B010BD226AC2F350
:100E00000121012903D1920701D5C803F4E7022982
:100E100005D1626A920702D549F64040ECE7032902
:100E2000EAD121688903E7D54FF22440E4E700F0D6
:100E300033F96168C1F38131491C4900DAE70000E8
:100E400002030405060708090A0B0C0D0E0F10100B
:100E5000010200000010024000127A0000093D006B
:100E60002DE9F84305460078354CC00754D0E069B9
:100E70000026C00008D4E06940F08050E061E069DD
:100E8000012600F0805000902E480168C90512D458
:100E90000168804641F480710160FFF7F5FD074667
:100EA00005E000BFFFF7F0FDC01B642823D8D8F889
:100EB0000000C005F6D5206A10F4407021D0A98842
:100EC00001F4407181421CD0206A1F49012220F4A4
:100ED00040700A6000220A602062C00711D0FFF74C
:100EE000D3FD074641F2883808E000BFFFF7CCFD8C
:100EF000C11B414502D90320BDE8F883206A800761
:100F0000F4D5206A696820F44070084320621EB15D
:100F1000E06920F08050E0612878800705D560689E
:100F2000A96820F44040084360602878C00605D5D1
:100F30006068E96820F48000084360600020DBE717
:100F40000010024000700040400442422DE9F0478A
:100F50000F46050061D0434E306800F00700B842EC
:100F600009D2306820F0070038433060306800F064
:100F70000700B84251D128683B4C810712D5400781
:100F800003D5606840F4E06060602878000703D50E
:100F9000606840F4605060606068A96820F0F0000C
:100FA000084360602878C00728D06868012810D0FE
:100FB0002168022810D0890700292EDA616821F003
:100FC000030101436160FFF75FFD804641F288390C
:100FD0000DE021688903EFE78901EDE7FFF754FD94
:100FE000A0EB0801494502D90320BDE8F0876068FD
:100FF000696800F00C00B0EB810FEFD1306800F0B1
:101000000700B8420BD9306820F007003843306041
:10101000306800F00700B84201D00120E5E72878E9
:10102000400705D56068E96820F4E0600843606027
:101030002878000706D56068296920F4605040EAE6
:10104000C100606000F038F86168084AC1F303111C
:10105000515CC8400649086006480068FFF71EFE5C
:101060000020C2E70020024000100240881D000856
:101070000C0000200400002004480549006849686D
:10108000044AC1F30221515CC84070470C000020A3
:1010900000100240981D000804480549006849688E
:1010A000044AC1F3C221515CC84070470C000020C3
:1010B00000100240981D000812A185B00FC98DE8EC
:1010C0000F0014A0144A006804905168134801F0FE
:1010D0000C03042B10D0082B0ED1C1F38343C9039A
:1010E0001DF803000AD5516804AAC1F34041515CC0
:1010F0000A4A5043B0FBF1F005B070470849484335
:10110000FAE7000002030405060708090A0B0C0DA4
:101110000E0F1010010200000010024000127A00B1
:1011200000093D002DE9F84F040070D02078C04D33
:10113000C00749D06868C0F38100012807D06868FB
:10114000C0F38100022809D16868C00306D5286869
:10115000800339D560680028E7D035E06068B0F5D5
:10116000803F0BD010B1B0F5A02F11D0286820F42B
:1011700080302860286820F4802002E0286840F44D
:1011800080302860606890B1FFF77EFC06460AE078
:10119000286840F480202860F0E700BFFFF774FC67
:1011A000801B642873D828688003F7D50CE0FFF70C
:1011B0006BFC064605E000BFFFF766FC801B642859
:1011C000F0D828688003F7D420789A4E80074FF033
:1011D00001094FF0000839D5686810F00C0F07D0EE
:1011E0006868C0F38100022809D16868C00306D48A
:1011F0002868800714D52069012808D110E02069EB
:10120000B0B1C6F80090FFF73FFC074605E00AE1E1
:10121000FFF73AFCC01B0228C4D828688007F7D51E
:101220002868616920F0F80040EAC10028600DE0FC
:10123000C6F80080FFF728FC074604E0FFF724FC0F
:10124000C01B022823D828688007F7D4207800071D
:101250002CD57948A169D9B1C0F80090FFF714FCEA
:10126000074604E0FFF710FCC01B02280FD8686A8D
:101270008007F7D571484FF4FA510068B0FBF1F0E0
:10128000009000BF0098411E0091FAD20EE080E06D
:10129000C0F80080FFF7F8FB074604E0FFF7F4FB17
:1012A000C01B022875D8686A8007F7D420784007E9
:1012B00060D5E8690027C00008D4E86940F0805094
:1012C000E861E869012700F0805000905C480168FF
:1012D000C90513D40168834641F480710160FFF7AA
:1012E000D3FB824606E000BFFFF7CEFBA0EB0A006F
:1012F00064284ED8DBF80000C005F5D5E068012869
:101300000AD008B1052813D0286A20F0010028620D
:10131000286A20F0040002E0286A40F001002862F8
:10132000E06841F2883B98B1FFF7AEFB82460BE0E4
:10133000286A40F004002862EEE700BFFFF7A4FB34
:10134000A0EB0A0159455AD8286A8007F6D50CE067
:10135000FFF79AFB824605E0FFF796FBA0EB0A0138
:1013600059454CD8286A8007F6D41FB1E86920F0A7
:101370008050E861E06988B36968C1F3810102299E
:1013800044D00228C6F8608004D0FFF77DFB0446F5
:1013900038E034E0FFF778FB074604E0FFF774FB22
:1013A000C01B02282BD828688001F7D4206AB0F52A
:1013B000803F05D16868A16820F400300843686068
:1013C000D4E908010843696821F47411084368608E
:1013D000C6F86090FFF758FB044606E025E000BF22
:1013E000FFF752FB001B022809D828688001F7D5B7
:1013F0001BE000BFFFF748FB001B022802D90320B7
:10140000BDE8F88F28688001F4D40EE00128F7D0F9
:101410006868226A00F48031914204D1616A00F464
:101420007010884201D00120EAE70020E8E70000C0
:101430000010024000004242800442420C000020A2
:1014400000700040704770B5040005D00025A5620B
:1014500094F8510010B106E0012070BD84F850509E
:10146000204600F02FF8022084F85100206801681F
:1014700021F040010160D4E901010843D4E90312DD
:101480001143084361690843218B01F4007108434B
:10149000E1690843216A0843A16A0843216808609A
:1014A000A069042101EA1040216848602068C169F0
:1014B00021F40061C1616565012084F851000020BC
:1014C00070BD000070B586B00024009401940294B1
:1014D0000394264A016826480225032691421FD11B
:1014E000816941F480518161816901F480510491E5
:1014F000816941F0040181618069694600F004005E
:101500000490A020CDE900051A4D03962846FFF768
:10151000C5F94020CDE9000469462846029421E03F
:10152000154A914220D1C16941F48041C161C1692C
:1015300001F480410491816941F008018161806971
:101540000E4C00F0080004904FF4304000906946C3
:101550002046FFF7A3F94FF48040CDE90005694626
:1015600003962046FFF79AF906B070BD003001409F
:10157000001002400008014000380040000C01400B
:10158000F0B400248568134604261DB94268B2F5FC
:10159000827F0DD090F85020012A0FD0012280F8D0
:1015A000502090F851700022012F0AD0022431E01F
:1015B00080F85160F0BC0A4600F042B80220F0BC4E
:1015C000704771B16BB180F8516042658163838768
:1015D000C38702638286C2864264C16819B10F491B
:1015E00002E0012416E00E490164B5F5004F04D174
:1015F00001680B6823F480430B6001684B6843F07B
:1016000060034B6001680B685B0603D40B6843F012
:1016100040030B6080F850202046D0E7F51A000800
:10162000151B0008044A0168914203D102220349B4
:10163000FFF7A6BF704700000038004010000020F0
:10164000F0B590F850500024012D0CD0012580F801
:10165000505090F8515000264768012D0BD0B7F537
:10166000827F06D101E00220F0BD87680FB9042D0A
:1016700001D0022429E0A9B1A2B19BB190F8515048
:10168000042D02D0052580F85150466501638386FC
:10169000C38682638387C387C16829B10D4901640A
:1016A0000D4904E0012410E00C4901640C49416437
:1016B00001684A6842F0E0024A6001680A6852061E
:1016C00003D40A6842F040020A6080F85060204665
:1016D000F0BD0000DB1800083B1900080B190008DA
:1016E0006B190008704710B5401EB0F1807F01D320
:1016F000012010BD4FF0E02460610F21601700F061
:10170000BCFA0020A06107202061002010BDFEE788
:101710003EB5002411480094019402940E4984605F
:10172000016004730475012505614FF46021446074
:10173000C161FEF7DFFE08B1FEF77EFD0920CDE9AD
:101740000005694602940548FEF7DEFD002801D039
:10175000FEF772FD3EBD0000002401401C00002089
:101760002DE9F04385B000242548009401940294AB
:101770000394816941F010018161816901F01001D8
:101780000491816941F020018161816901F02001AA
:101790000491816941F004018161816901F00401D2
:1017A0000491816941F0080181618069DFF854800A
:1017B00000F008000490002208214046FFF75EF97F
:1017C000DFF844904FF48A67002239464846FFF715
:1017D00055F9082001250226CDE90005CDE902468C
:1017E00069464046FFF75AF800970396CDE9015441
:1017F00069464846FFF752F805B0BDE8F08300009F
:101800000010024000080140001001400D4810B5D2
:101810000B4901600C49416000214FF48042816016
:10182000C0E9031241618161C1610162FFF732F9D0
:10183000002803D0BDE81040FEF7FEBC10BD00003C
:10184000005800404C000020801A0600104810B5D7
:101850000E4901604FF48271416000218160C160D6
:101860004FF400720161C0E905122022C0E907218E
:10187000416281620A21C162FFF7E5FD002803D0C1
:10188000BDE81040FEF7D8BC10BD0000003001409C
:10189000A00000200E4810B50C49016000214160F5
:1018A0008160C160016120224161C0E906120162CC
:1018B000416281620A21C162FFF7C5FD002803D0A1
:1018C000BDE81040FEF7B8BC10BD00000038004075
:1018D000F8000020FEE7704770470168C968826B16
:1018E0001180816B891C8163C18F491EC187C18FA3
:1018F000002909D101684A6822F040024A60C18E7D
:10190000002901D100F04AB870470168097B826B59
:101910001170816B491C8163C18F491EC187C18FC2
:10192000002909D101684A6822F060024A60C18E2C
:10193000002901D100F032B87047016B02680988B4
:10194000D160016B891C0163C18E491EC186C18EA5
:10195000002909D101684A6822F080024A60C18FDB
:10196000002901D100F01AB87047016B02680978AC
:101970001173016B491C0163C18E491EC186C18E62
:10198000002909D101684A6822F080024A60C18FAB
:10199000002901D100F002B87047000038B50446B4
:1019A000214845F6C0510068B0FBF1F0642148437E
:1019B0000090FFF769F802462068416821F0200195
:1019C0004160009888B1401E0090206880688007C0
:1019D000F7D56421204600F07DF818B1606D40F025
:1019E00020006065A06828B108E0606D40F020002C
:1019F0006065EEE72068C16880680090616D012035
:101A000029B184F851002046FFF71CFD38BD94F839
:101A1000511084F851000429204602D0FFF762FEDD
:101A200038BDFFF7FFFD38BD0C00002038B5044677
:101A30000068416821F060014160FFF725F8024627
:101A40006421204600F018F818B1606D40F02000C5
:101A50006065A06818B92068C1688068009001209E
:101A600084F85100606D0028204602D0FFF7EAFCA0
:101A700038BDFFF7D7FD38BDF8B5044640684FF4D0
:101A80008273984217D1A0684FF48065B0F5004F7B
:101A900001D0A8420FD12068066826F040060660F3
:101AA0006068984207D1A068A84204D100920B4612
:101AB0000022012103E000920B46002280212046F3
:101AC00000F038F8002804D0606D40F02000606518
:101AD0000320F8BD38B50B46009204460022802151
:101AE00000F028F8002804D0606D40F02000606508
:101AF000032038BD0168C968826B1180816B891C25
:101B00008163C18F491EC187C18F002901D1FFF7B1
:101B10008DBF70470168097B826B1170816B491C16
:101B20008163C18F491EC187C18F002901D1FFF791
:101B30007DBF70472DE9F0411D4617460E4604460D
:101B4000DDF8188008E0681C06D0FEF79DFFA0EBCA
:101B50000800A8420BD255B12068806836EA000020
:101B600030D00020B842EED10020BDE8F0812068DE
:101B7000416821F0E00141606068B0F5827F0BD1DF
:101B8000A068B0F5004F02D0B0F5806F04D1206896
:101B9000016821F040010160A06AB0F5005F09D141
:101BA0002068016821F4005101602068016841F457
:101BB00000510160012084F85100002084F8500099
:101BC0000320D2E70120CDE77047FFF74DB830B5CD
:101BD00093B028216846FEF7ACFA14210AA8FEF754
:101BE000A8FA002401200F94109411940104129477
:101BF0008DE8130004904FF4E010CDE908100225A1
:101C000007956846FFF78EFA0F20CDE90A056802AE
:101C1000CDE90C4002210AA80E94FFF797F9A8031A
:101C200011900F950FA8FFF71BF913B030BD0000FE
:101C30000D48016841F00101016041680B4A114003
:101C4000416001680A4A11400160016821F4802165
:101C50000160416821F4FE0141604FF41F01816081
:101C60000449C00308607047001002400000FFF8FC
:101C7000FFFFF6FE08ED00E0FEE70907090E002869
:101C800004DB00F1E02080F80014704700F00F0042
:101C900000F1E02080F8141D704702E008C8121F10
:101CA00008C1002AFAD170477047002001E001C145
:101CB000121F002AFBD17047174C184D4FF47A7849
:101CC00040F2DC564FF4806940F26C771448FEF71E
:101CD0006DFD41461248FEF7D1FC1148FEF793FB1B
:101CE000A060616888420BD9012249462846FEF768
:101CF000C5FE012240212846FEF7C0FE6660E5E7EA
:101D0000002249462846FEF7B9FE00224021284617
:101D1000FEF7B4FE6760D9E7100000200010014014
:101D20001C000020FEF7A8FFFFF751FFFFF718FD8A
:101D3000FFF7EEFCFFF76AFDFFF788FDFFF7AAFD4E
:101D400000F006F86420FEF797FDFFF7B5FFFEE709
:101D500010B54FF4FA742046FEF78EFD2046FEF7CC
:101D60008BFD0648FEF76AFA0028FAD1BDE810405C
:101D7000022203490348FFF703BC00001C000020B7
:101D800010000020F800002000000000000000000B
:101D90000102030406070809000000000102030411
:101DA000C01D0008000000201C0000009A1C000854
:101DB000DC1D00081C00002034050000AA1C0008DF
:101DC0000100000010000000000000000024F400EA
:0C1DD00000000000000000000000000007
:04000005080000ED02
:00000001FF
